{
  "_format": "hh-sol-artifact-1",
  "contractName": "SemanticSBT",
  "sourceName": "contracts/core/SemanticSBT.sol",
  "abi": [
    {
      "inputs": [],
      "stateMutability": "nonpayable",
      "type": "constructor"
    },
    {
      "anonymous": false,
      "inputs": [
        {
          "indexed": true,
          "internalType": "address",
          "name": "owner",
          "type": "address"
        },
        {
          "indexed": true,
          "internalType": "address",
          "name": "approved",
          "type": "address"
        },
        {
          "indexed": true,
          "internalType": "uint256",
          "name": "tokenId",
          "type": "uint256"
        }
      ],
      "name": "Approval",
      "type": "event"
    },
    {
      "anonymous": false,
      "inputs": [
        {
          "indexed": true,
          "internalType": "address",
          "name": "owner",
          "type": "address"
        },
        {
          "indexed": true,
          "internalType": "address",
          "name": "operator",
          "type": "address"
        },
        {
          "indexed": false,
          "internalType": "bool",
          "name": "approved",
          "type": "bool"
        }
      ],
      "name": "ApprovalForAll",
      "type": "event"
    },
    {
      "anonymous": false,
      "inputs": [
        {
          "indexed": true,
          "internalType": "address",
          "name": "operator",
          "type": "address"
        },
        {
          "indexed": true,
          "internalType": "address",
          "name": "owner",
          "type": "address"
        },
        {
          "indexed": true,
          "internalType": "uint256",
          "name": "tokenId",
          "type": "uint256"
        },
        {
          "indexed": false,
          "internalType": "string",
          "name": "rdf",
          "type": "string"
        }
      ],
      "name": "CreateSBT",
      "type": "event"
    },
    {
      "anonymous": false,
      "inputs": [
        {
          "indexed": true,
          "internalType": "address",
          "name": "newMinter",
          "type": "address"
        }
      ],
      "name": "EventMinterAdded",
      "type": "event"
    },
    {
      "anonymous": false,
      "inputs": [
        {
          "indexed": true,
          "internalType": "address",
          "name": "oldMinter",
          "type": "address"
        }
      ],
      "name": "EventMinterRemoved",
      "type": "event"
    },
    {
      "anonymous": false,
      "inputs": [
        {
          "indexed": false,
          "internalType": "uint8",
          "name": "version",
          "type": "uint8"
        }
      ],
      "name": "Initialized",
      "type": "event"
    },
    {
      "anonymous": false,
      "inputs": [
        {
          "indexed": true,
          "internalType": "address",
          "name": "previousOwner",
          "type": "address"
        },
        {
          "indexed": true,
          "internalType": "address",
          "name": "newOwner",
          "type": "address"
        }
      ],
      "name": "OwnershipTransferred",
      "type": "event"
    },
    {
      "anonymous": false,
      "inputs": [
        {
          "indexed": true,
          "internalType": "address",
          "name": "operator",
          "type": "address"
        },
        {
          "indexed": true,
          "internalType": "address",
          "name": "owner",
          "type": "address"
        },
        {
          "indexed": true,
          "internalType": "uint256",
          "name": "tokenId",
          "type": "uint256"
        },
        {
          "indexed": false,
          "internalType": "string",
          "name": "rdf",
          "type": "string"
        }
      ],
      "name": "RemoveSBT",
      "type": "event"
    },
    {
      "anonymous": false,
      "inputs": [
        {
          "indexed": true,
          "internalType": "address",
          "name": "from",
          "type": "address"
        },
        {
          "indexed": true,
          "internalType": "address",
          "name": "to",
          "type": "address"
        },
        {
          "indexed": true,
          "internalType": "uint256",
          "name": "tokenId",
          "type": "uint256"
        }
      ],
      "name": "Transfer",
      "type": "event"
    },
    {
      "inputs": [
        {
          "internalType": "address",
          "name": "minter",
          "type": "address"
        }
      ],
      "name": "addMinter",
      "outputs": [],
      "stateMutability": "nonpayable",
      "type": "function"
    },
    {
      "inputs": [
        {
          "internalType": "string",
          "name": "value",
          "type": "string"
        },
        {
          "internalType": "string",
          "name": "className_",
          "type": "string"
        }
      ],
      "name": "addSubject",
      "outputs": [
        {
          "internalType": "uint256",
          "name": "sIndex",
          "type": "uint256"
        }
      ],
      "stateMutability": "nonpayable",
      "type": "function"
    },
    {
      "inputs": [
        {
          "internalType": "address",
          "name": "to",
          "type": "address"
        },
        {
          "internalType": "uint256",
          "name": "tokenId",
          "type": "uint256"
        }
      ],
      "name": "approve",
      "outputs": [],
      "stateMutability": "nonpayable",
      "type": "function"
    },
    {
      "inputs": [
        {
          "internalType": "address",
          "name": "owner",
          "type": "address"
        }
      ],
      "name": "balanceOf",
      "outputs": [
        {
          "internalType": "uint256",
          "name": "",
          "type": "uint256"
        }
      ],
      "stateMutability": "view",
      "type": "function"
    },
    {
      "inputs": [],
      "name": "baseURI",
      "outputs": [
        {
          "internalType": "string",
          "name": "",
          "type": "string"
        }
      ],
      "stateMutability": "view",
      "type": "function"
    },
    {
      "inputs": [
        {
          "internalType": "address",
          "name": "account",
          "type": "address"
        },
        {
          "internalType": "uint256",
          "name": "id",
          "type": "uint256"
        }
      ],
      "name": "burn",
      "outputs": [],
      "stateMutability": "nonpayable",
      "type": "function"
    },
    {
      "inputs": [
        {
          "internalType": "address",
          "name": "account",
          "type": "address"
        },
        {
          "internalType": "uint256[]",
          "name": "ids",
          "type": "uint256[]"
        }
      ],
      "name": "burnBatch",
      "outputs": [],
      "stateMutability": "nonpayable",
      "type": "function"
    },
    {
      "inputs": [
        {
          "internalType": "string",
          "name": "className_",
          "type": "string"
        }
      ],
      "name": "classIndex",
      "outputs": [
        {
          "internalType": "uint256",
          "name": "classIndex_",
          "type": "uint256"
        }
      ],
      "stateMutability": "view",
      "type": "function"
    },
    {
      "inputs": [
        {
          "internalType": "uint256",
          "name": "cIndex",
          "type": "uint256"
        }
      ],
      "name": "className",
      "outputs": [
        {
          "internalType": "string",
          "name": "name_",
          "type": "string"
        }
      ],
      "stateMutability": "view",
      "type": "function"
    },
    {
      "inputs": [
        {
          "internalType": "uint256",
          "name": "tokenId",
          "type": "uint256"
        }
      ],
      "name": "getApproved",
      "outputs": [
        {
          "internalType": "address",
          "name": "",
          "type": "address"
        }
      ],
      "stateMutability": "view",
      "type": "function"
    },
    {
      "inputs": [],
      "name": "getMinted",
      "outputs": [
        {
          "internalType": "uint256",
          "name": "",
          "type": "uint256"
        }
      ],
      "stateMutability": "view",
      "type": "function"
    },
    {
      "inputs": [
        {
          "internalType": "address",
          "name": "minter",
          "type": "address"
        },
        {
          "internalType": "string",
          "name": "name_",
          "type": "string"
        },
        {
          "internalType": "string",
          "name": "symbol_",
          "type": "string"
        },
        {
          "internalType": "string",
          "name": "baseURI_",
          "type": "string"
        },
        {
          "internalType": "string",
          "name": "schemaURI_",
          "type": "string"
        },
        {
          "internalType": "string[]",
          "name": "classes_",
          "type": "string[]"
        },
        {
          "components": [
            {
              "internalType": "string",
              "name": "name",
              "type": "string"
            },
            {
              "internalType": "enum FieldType",
              "name": "fieldType",
              "type": "uint8"
            }
          ],
          "internalType": "struct Predicate[]",
          "name": "predicates_",
          "type": "tuple[]"
        }
      ],
      "name": "initialize",
      "outputs": [],
      "stateMutability": "nonpayable",
      "type": "function"
    },
    {
      "inputs": [
        {
          "internalType": "address",
          "name": "owner",
          "type": "address"
        },
        {
          "internalType": "address",
          "name": "operator",
          "type": "address"
        }
      ],
      "name": "isApprovedForAll",
      "outputs": [
        {
          "internalType": "bool",
          "name": "",
          "type": "bool"
        }
      ],
      "stateMutability": "view",
      "type": "function"
    },
    {
      "inputs": [
        {
          "internalType": "address",
          "name": "account",
          "type": "address"
        },
        {
          "internalType": "uint256",
          "name": "id",
          "type": "uint256"
        }
      ],
      "name": "isOwnerOf",
      "outputs": [
        {
          "internalType": "bool",
          "name": "",
          "type": "bool"
        }
      ],
      "stateMutability": "view",
      "type": "function"
    },
    {
      "inputs": [
        {
          "internalType": "address",
          "name": "account",
          "type": "address"
        },
        {
          "internalType": "uint256",
          "name": "sIndex",
          "type": "uint256"
        },
        {
          "components": [
            {
              "internalType": "uint256",
              "name": "pIndex",
              "type": "uint256"
            },
            {
              "internalType": "uint256",
              "name": "o",
              "type": "uint256"
            }
          ],
          "internalType": "struct IntPO[]",
          "name": "intPOList",
          "type": "tuple[]"
        },
        {
          "components": [
            {
              "internalType": "uint256",
              "name": "pIndex",
              "type": "uint256"
            },
            {
              "internalType": "string",
              "name": "o",
              "type": "string"
            }
          ],
          "internalType": "struct StringPO[]",
          "name": "stringPOList",
          "type": "tuple[]"
        },
        {
          "components": [
            {
              "internalType": "uint256",
              "name": "pIndex",
              "type": "uint256"
            },
            {
              "internalType": "address",
              "name": "o",
              "type": "address"
            }
          ],
          "internalType": "struct AddressPO[]",
          "name": "addressPOList",
          "type": "tuple[]"
        },
        {
          "components": [
            {
              "internalType": "uint256",
              "name": "pIndex",
              "type": "uint256"
            },
            {
              "internalType": "uint256",
              "name": "oIndex",
              "type": "uint256"
            }
          ],
          "internalType": "struct SubjectPO[]",
          "name": "subjectPOList",
          "type": "tuple[]"
        },
        {
          "components": [
            {
              "internalType": "uint256",
              "name": "pIndex",
              "type": "uint256"
            },
            {
              "components": [
                {
                  "internalType": "uint256",
                  "name": "pIndex",
                  "type": "uint256"
                },
                {
                  "internalType": "uint256",
                  "name": "o",
                  "type": "uint256"
                }
              ],
              "internalType": "struct IntPO[]",
              "name": "intO",
              "type": "tuple[]"
            },
            {
              "components": [
                {
                  "internalType": "uint256",
                  "name": "pIndex",
                  "type": "uint256"
                },
                {
                  "internalType": "string",
                  "name": "o",
                  "type": "string"
                }
              ],
              "internalType": "struct StringPO[]",
              "name": "stringO",
              "type": "tuple[]"
            },
            {
              "components": [
                {
                  "internalType": "uint256",
                  "name": "pIndex",
                  "type": "uint256"
                },
                {
                  "internalType": "address",
                  "name": "o",
                  "type": "address"
                }
              ],
              "internalType": "struct AddressPO[]",
              "name": "addressO",
              "type": "tuple[]"
            },
            {
              "components": [
                {
                  "internalType": "uint256",
                  "name": "pIndex",
                  "type": "uint256"
                },
                {
                  "internalType": "uint256",
                  "name": "oIndex",
                  "type": "uint256"
                }
              ],
              "internalType": "struct SubjectPO[]",
              "name": "subjectO",
              "type": "tuple[]"
            }
          ],
          "internalType": "struct BlankNodePO[]",
          "name": "blankNodePOList",
          "type": "tuple[]"
        }
      ],
      "name": "mint",
      "outputs": [
        {
          "internalType": "uint256",
          "name": "",
          "type": "uint256"
        }
      ],
      "stateMutability": "nonpayable",
      "type": "function"
    },
    {
      "inputs": [
        {
          "internalType": "address",
          "name": "account",
          "type": "address"
        }
      ],
      "name": "minters",
      "outputs": [
        {
          "internalType": "bool",
          "name": "",
          "type": "bool"
        }
      ],
      "stateMutability": "view",
      "type": "function"
    },
    {
      "inputs": [],
      "name": "name",
      "outputs": [
        {
          "internalType": "string",
          "name": "",
          "type": "string"
        }
      ],
      "stateMutability": "view",
      "type": "function"
    },
    {
      "inputs": [],
      "name": "owner",
      "outputs": [
        {
          "internalType": "address",
          "name": "",
          "type": "address"
        }
      ],
      "stateMutability": "view",
      "type": "function"
    },
    {
      "inputs": [
        {
          "internalType": "uint256",
          "name": "tokenId",
          "type": "uint256"
        }
      ],
      "name": "ownerOf",
      "outputs": [
        {
          "internalType": "address",
          "name": "",
          "type": "address"
        }
      ],
      "stateMutability": "view",
      "type": "function"
    },
    {
      "inputs": [
        {
          "internalType": "uint256",
          "name": "pIndex",
          "type": "uint256"
        }
      ],
      "name": "predicate",
      "outputs": [
        {
          "internalType": "string",
          "name": "name_",
          "type": "string"
        },
        {
          "internalType": "enum FieldType",
          "name": "fieldType",
          "type": "uint8"
        }
      ],
      "stateMutability": "view",
      "type": "function"
    },
    {
      "inputs": [
        {
          "internalType": "string",
          "name": "predicateName_",
          "type": "string"
        }
      ],
      "name": "predicateIndex",
      "outputs": [
        {
          "internalType": "uint256",
          "name": "predicateIndex_",
          "type": "uint256"
        }
      ],
      "stateMutability": "view",
      "type": "function"
    },
    {
      "inputs": [
        {
          "internalType": "uint256",
          "name": "tokenId",
          "type": "uint256"
        }
      ],
      "name": "rdfOf",
      "outputs": [
        {
          "internalType": "string",
          "name": "",
          "type": "string"
        }
      ],
      "stateMutability": "view",
      "type": "function"
    },
    {
      "inputs": [
        {
          "internalType": "address",
          "name": "minter",
          "type": "address"
        }
      ],
      "name": "removeMinter",
      "outputs": [],
      "stateMutability": "nonpayable",
      "type": "function"
    },
    {
      "inputs": [],
      "name": "renounceOwnership",
      "outputs": [],
      "stateMutability": "nonpayable",
      "type": "function"
    },
    {
      "inputs": [
        {
          "internalType": "address",
          "name": "from",
          "type": "address"
        },
        {
          "internalType": "address",
          "name": "to",
          "type": "address"
        },
        {
          "internalType": "uint256",
          "name": "tokenId",
          "type": "uint256"
        }
      ],
      "name": "safeTransferFrom",
      "outputs": [],
      "stateMutability": "nonpayable",
      "type": "function"
    },
    {
      "inputs": [
        {
          "internalType": "address",
          "name": "from",
          "type": "address"
        },
        {
          "internalType": "address",
          "name": "to",
          "type": "address"
        },
        {
          "internalType": "uint256",
          "name": "tokenId",
          "type": "uint256"
        },
        {
          "internalType": "bytes",
          "name": "_data",
          "type": "bytes"
        }
      ],
      "name": "safeTransferFrom",
      "outputs": [],
      "stateMutability": "nonpayable",
      "type": "function"
    },
    {
      "inputs": [],
      "name": "schemaURI",
      "outputs": [
        {
          "internalType": "string",
          "name": "",
          "type": "string"
        }
      ],
      "stateMutability": "view",
      "type": "function"
    },
    {
      "inputs": [
        {
          "internalType": "address",
          "name": "operator",
          "type": "address"
        },
        {
          "internalType": "bool",
          "name": "approved",
          "type": "bool"
        }
      ],
      "name": "setApprovalForAll",
      "outputs": [],
      "stateMutability": "nonpayable",
      "type": "function"
    },
    {
      "inputs": [
        {
          "internalType": "string",
          "name": "newName",
          "type": "string"
        }
      ],
      "name": "setName",
      "outputs": [],
      "stateMutability": "nonpayable",
      "type": "function"
    },
    {
      "inputs": [
        {
          "internalType": "string",
          "name": "newSymbol",
          "type": "string"
        }
      ],
      "name": "setSymbol",
      "outputs": [],
      "stateMutability": "nonpayable",
      "type": "function"
    },
    {
      "inputs": [
        {
          "internalType": "bool",
          "name": "transferable_",
          "type": "bool"
        }
      ],
      "name": "setTransferable",
      "outputs": [],
      "stateMutability": "nonpayable",
      "type": "function"
    },
    {
      "inputs": [
        {
          "internalType": "string",
          "name": "newURI",
          "type": "string"
        }
      ],
      "name": "setURI",
      "outputs": [],
      "stateMutability": "nonpayable",
      "type": "function"
    },
    {
      "inputs": [
        {
          "internalType": "uint256",
          "name": "index",
          "type": "uint256"
        }
      ],
      "name": "subject",
      "outputs": [
        {
          "internalType": "string",
          "name": "subjectValue",
          "type": "string"
        },
        {
          "internalType": "string",
          "name": "className_",
          "type": "string"
        }
      ],
      "stateMutability": "view",
      "type": "function"
    },
    {
      "inputs": [
        {
          "internalType": "string",
          "name": "subjectValue",
          "type": "string"
        },
        {
          "internalType": "string",
          "name": "className_",
          "type": "string"
        }
      ],
      "name": "subjectIndex",
      "outputs": [
        {
          "internalType": "uint256",
          "name": "",
          "type": "uint256"
        }
      ],
      "stateMutability": "view",
      "type": "function"
    },
    {
      "inputs": [
        {
          "internalType": "bytes4",
          "name": "interfaceId",
          "type": "bytes4"
        }
      ],
      "name": "supportsInterface",
      "outputs": [
        {
          "internalType": "bool",
          "name": "",
          "type": "bool"
        }
      ],
      "stateMutability": "view",
      "type": "function"
    },
    {
      "inputs": [],
      "name": "symbol",
      "outputs": [
        {
          "internalType": "string",
          "name": "",
          "type": "string"
        }
      ],
      "stateMutability": "view",
      "type": "function"
    },
    {
      "inputs": [
        {
          "internalType": "uint256",
          "name": "index",
          "type": "uint256"
        }
      ],
      "name": "tokenByIndex",
      "outputs": [
        {
          "internalType": "uint256",
          "name": "",
          "type": "uint256"
        }
      ],
      "stateMutability": "view",
      "type": "function"
    },
    {
      "inputs": [
        {
          "internalType": "address",
          "name": "owner",
          "type": "address"
        },
        {
          "internalType": "uint256",
          "name": "index",
          "type": "uint256"
        }
      ],
      "name": "tokenOfOwnerByIndex",
      "outputs": [
        {
          "internalType": "uint256",
          "name": "",
          "type": "uint256"
        }
      ],
      "stateMutability": "view",
      "type": "function"
    },
    {
      "inputs": [
        {
          "internalType": "uint256",
          "name": "tokenId",
          "type": "uint256"
        }
      ],
      "name": "tokenURI",
      "outputs": [
        {
          "internalType": "string",
          "name": "",
          "type": "string"
        }
      ],
      "stateMutability": "view",
      "type": "function"
    },
    {
      "inputs": [],
      "name": "totalSupply",
      "outputs": [
        {
          "internalType": "uint256",
          "name": "",
          "type": "uint256"
        }
      ],
      "stateMutability": "view",
      "type": "function"
    },
    {
      "inputs": [
        {
          "internalType": "address",
          "name": "from",
          "type": "address"
        },
        {
          "internalType": "address",
          "name": "to",
          "type": "address"
        },
        {
          "internalType": "uint256",
          "name": "tokenId",
          "type": "uint256"
        }
      ],
      "name": "transferFrom",
      "outputs": [],
      "stateMutability": "nonpayable",
      "type": "function"
    },
    {
      "inputs": [
        {
          "internalType": "address",
          "name": "newOwner",
          "type": "address"
        }
      ],
      "name": "transferOwnership",
      "outputs": [],
      "stateMutability": "nonpayable",
      "type": "function"
    },
    {
      "inputs": [],
      "name": "transferable",
      "outputs": [
        {
          "internalType": "bool",
          "name": "",
          "type": "bool"
        }
      ],
      "stateMutability": "view",
      "type": "function"
    }
  ],
  "bytecode": "0x60808060405234620000f45760008054336001600160a01b0319821681178355620000e49390916001600160a01b0316907f8be0079c531659141344cd1fd0a4f28419497f9722a3daafe3b4186f6b6457e0908490a3620000b86200006362000160565b6200006d62000160565b6200007762000111565b9184835284602084015260408301526060820152620000b26200009962000140565b91620000a46200019d565b8352846020840152620002a4565b620004c5565b620000c262000608565b620000cc62000140565b90620000d76200019d565b8252602082015262000703565b6040516152f39081620008618239f35b50600080fd5b50634e487b7160e01b600052604160045260246000fd5b60405190608082016001600160401b038111838210176200013157604052565b6200013b620000fa565b604052565b60408051919082016001600160401b038111838210176200013157604052565b6040516020810191906000906001600160401b038411818510176200018d575b8360405281815292369037565b62000197620000fa565b62000180565b60405190602082016001600160401b03811183821017620001c2575b60405260008252565b620001cc620000fa565b620001b9565b50634e487b7160e01b600052603260045260246000fd5b50634e487b7160e01b600052600060045260246000fd5b8181106200020c575050565b6000815560010162000200565b81519168010000000000000000831162000294575b815483835580841062000273575b50602080910191600052806000206000925b8484106200025d575050505050565b600183828293518555019201930192906200024e565b6200028d9083600052846020600020918201910162000200565b386200023c565b6200029e620000fa565b6200022e565b600454906801000000000000000080831015620003ca575b60019081840180600455841015620003ba575b60046000908152835160029590951b7f8a35acfbc15ff81a39ae7d344fd709f28e8600b4aa8c65c6b64bfe7fe36bd19b0180546001600160a01b0319166001600160a01b039690961695909517855560208085015184870155600286018160408701518051958611620003aa575b82548684558087106200038d575b5091845282842091015b8484106200037957505050505050906003606062000377930151910162000219565b565b805182559285019290850190820162000355565b838652828620620003a391810190880162000200565b386200034b565b620003b4620000fa565b6200033d565b620003c4620001d2565b620002cf565b620003d4620000fa565b620002bc565b600a54811015620003fb575b600a60005260206000209060011b0190600090565b62000405620001d2565b620003e6565b6011548110156200042c575b601160005260206000209060011b0190600090565b62000436620001d2565b62000417565b90600182811c9216801562000470575b60208310146200045857565b5050634e487b7160e01b600052602260045260246000fd5b91607f16916200044c565b9190601f81116200048b57505050565b62000377926000526020600020906020601f840160051c83019310620004ba575b601f0160051c019062000200565b9091508190620004ac565b600a5468010000000000000000811015620005f8575b620004ee600191828101600a55620003da565b929092620005e8575b805180519091906001600160401b038111620005d8575b62000526816200051f87546200043c565b876200047b565b806020938490601f831160011462000568576000926200055c575b5050600019600383901b1c191690841b1784555b0151910155565b01519050388062000541565b90869350601f198316916200058289600052602060002090565b9260005b88828210620005c15750508411620005a7575b505050811b01845562000555565b015160001960f88460031b161c1916905538808062000599565b8385015186558a9790950194938401930162000586565b620005e2620000fa565b6200050e565b620005f2620001e9565b620004f7565b62000602620000fa565b620004db565b6000600f54680100000000000000008110156200069f575b6001810180600f558110156200068f575b600f82527f8d1108e10bcb7c27dddfc02ed9d693a074039d026cf4ea4240b40f7d581ac80201805462000664906200043c565b601f811162000671575055565b818352602083206200068c91601f0160051c81019062000200565b55565b62000699620001d2565b62000631565b620006a9620000fa565b62000620565b60051115620006ba57565b50634e487b7160e01b600052602160045260246000fd5b906005811015620006ea5760ff80198354169116179055565b505050634e487b7160e01b600052602160045260246000fd5b906011546801000000000000000081101562000850575b6200072d6001918281016011556200040b565b91909162000840575b83518051946001600160401b03861162000830575b62000763866200075c86546200043c565b866200047b565b6020918290601f8811600114620007bb57968091620003779798600092620007af575b5050600019600383901b1c191690841b1784555b015191620007a883620006af565b01620006d1565b01519050388062000786565b90601f19881691620007d287600052602060002090565b9260005b8181106200081a5750918693918a620003779a9b941062000800575b505050811b0184556200079a565b015160001960f88460031b161c19169055388080620007f2565b82840151855593870193928601928601620007d6565b6200083a620000fa565b6200074b565b6200084a620001e9565b62000736565b6200085a620000fa565b6200071a56fe6040608081526004361015610015575b50600080fd5b600090813560e01c806301ffc9a71461070457806302fe5305146106ec57806306fdde03146106d0578063081812fc146106b4578063095ea7b31461069c578063152407ae1461068057806318160ddd1461066457806323b872dd1461064c5780632f745c591461062f5780633092afd51461061857806342842e0e146106005780634f6ccce7146105e45780635036d1a8146105c757806352e89bbd146105a457806358e23bac146105885780636352211e146105615780636c0360eb1461054557806370a0823114610529578063715018a6146105125780638da5cb5b146104ea57806392ff0d31146104bf5780639377268d146104a357806395d89b4114610487578063983b2d56146104705780639cd23707146104595780639dc29fac14610441578063a22cb46514610429578063a6c1653d1461040c578063a9ff13a6146103e3578063ac72200d146103b8578063b2dc5dc3146103a0578063b84c824614610388578063b88d4fde1461036d578063c47f002714610355578063c5b8f77214610338578063c87b56dd1461031c578063d49116f5146102fe578063d4b0c403146102d5578063deeec344146102b9578063e985e9c514610289578063f2fde38b1461026f578063f46eccc4146102295763fbafb698146101fb575061000f565b346102255761022191506102166102113661083e565b61252a565b90519182918261082d565b0390f35b5080fd5b503461022557610221915061025e61024036610a82565b6001600160a01b031660009081526008602052604090205460ff1690565b905191829182901515815260200190565b50346102255761028661028136610a82565b61168f565b51f35b503461022557610221915061025e6102b26102ad6102a6366115c5565b9190611a61565b611aaf565b5460ff1690565b50346102255761022191506102166102d03661083e565b61218f565b50346102255761022191506102f16102ec3661083e565b61231b565b9290915192839283611586565b503461022557610286610310366114ae565b9594909493919361174c565b50346102255761022191506102166103333661083e565b612a04565b503461022557610221915061025e61034f3661088f565b906128eb565b50346102255761028661036736610763565b90614e44565b50346102255761028661037f36611307565b92919091612f90565b50346102255761028661039a36610763565b90614f1b565b5034610225576102866103b2366112a6565b916148d5565b50346102255761022191506103cc366107c5565b6103d46125f4565b90519081529081906020820190565b50346102255761022191506103ff6103fa3661083e565b6123e1565b9290915192839283611281565b50346102255761022191506103d461042336610aa5565b906123b5565b50346102255761028661043b36611250565b90612d74565b5034610225576102866104533661088f565b9061474a565b50346102255761028661046b36611234565b614e2a565b50346102255761028661048236610a82565b614ff5565b503461022557610221915061049b366107c5565b610216611086565b50346102255761022191506103d46104ba36610a21565b612217565b50346102255761022191506104d3366107c5565b60ff60095416905191829182901515815260200190565b503461022557610221916104fd366107c5565b5490519182916001600160a01b031682610850565b503461022557610521366107c5565b6102866115f8565b50346102255761022191506103d461054036610a82565b6127f3565b5034610225576102219150610559366107c5565b610216610fff565b503461022557610221915061057d6105783661083e565b61286d565b905191829182610850565b503461022557610221915061059c366107c5565b61021661110d565b50346102255761022191506103d46105bb36610e57565b95949094939193613e72565b50346102255761022191506103d46105de36610aa5565b90613d6f565b50346102255761022191506103d46105fb3661083e565b612726565b50346102255761028661061236610a4b565b91612f00565b50346102255761028661062a36610a82565b6150c9565b50346102255761022191506103d46106463661088f565b90612651565b50346102255761028661065e36610a4b565b91612e6e565b5034610225576102219150610678366107c5565b6103d4612606565b50346102255761022191506103d461069736610a21565b61216b565b5034610225576102866106ae3661088f565b90612be2565b503461022557610221915061057d6106cb3661083e565b612cef565b50346102255761022191506106e4366107c5565b610216610f67565b5034610225576102866106fe36610763565b90614d50565b5050346107325750607f1961072d61072361071e36610748565b612056565b151560805260a090565b016080f35b80fd5b6001600160e01b03198116141561000f57565b602090600319011261000f5760043561076081610735565b90565b9060206003198301126107be576001600160401b0391600435908382116107b557806023830112156107b55781600401359384116107b557602484830101116107ad576024019190565b505050600080fd5b50505050600080fd5b5050600080fd5b600090600319011261000f57565b918091926000905b8282106107f35750116107ec575050565b6000910152565b915080602091830151818601520182916107db565b90602091610821815180928185528580860191016107d3565b601f01601f1916010190565b906020610760928181520190610808565b602090600319011261000f5760043590565b6001600160a01b03909116815260200190565b600435906001600160a01b0382168214156107be57565b35906001600160a01b0382168214156107be57565b604090600319011261000f576004356001600160a01b0381168114156107be579060243590565b50634e487b7160e01b600052604160045260246000fd5b604081019081106001600160401b038211176108e857604052565b6108f06108b6565b604052565b602081019081106001600160401b038211176108e857604052565b606081019081106001600160401b038211176108e857604052565b601f909101601f19168101906001600160401b038211908210176108e857604052565b6040519060a082016001600160401b038111838210176108e857604052565b60405190608082016001600160401b038111838210176108e857604052565b60405190610999826108cd565b565b6020906001600160401b0381116109b8575b601f01601f19160190565b6109c06108b6565b6109ad565b9291926109d18261099b565b916109df604051938461092b565b8294818452818301116109fc578281602093846000960137010152565b5050505050600080fd5b9080601f830112156107ad57816020610760933591016109c5565b60206003198201126107be57600435906001600160401b0382116107ad5761076091600401610a06565b606090600319011261000f576001600160a01b03906004358281168114156107ad57916024359081168114156107ad579060443590565b602090600319011261000f576004356001600160a01b0381168114156107be5790565b9060406003198301126107be576001600160401b036004358181116107b55783610ad191600401610a06565b926024359182116107b55761076091600401610a06565b6020906001600160401b038111610b01575b60051b0190565b610b096108b6565b610afa565b81601f820112156107ad57803590610b2582610ae8565b92604092610b358451958661092b565b808552602091828087019260061b85010193818511610b90578301915b848310610b625750505050505090565b8583830312610b90578386918251610b79816108cd565b853581528286013583820152815201920191610b52565b5050505050505050600080fd5b81601f820112156107ad57803590610bb482610ae8565b92604092610bc48451958661092b565b808552602093848087019260051b85010193838511610b9057858101925b858410610bf3575050505050505090565b6001600160401b038435818111610c615783019184601f198489030112610c61578451610c1f816108cd565b89840135815285840135928311610c5057610c41888b80969581960101610a06565b83820152815201930192610be2565b505050505050505050505050600080fd5b5050505050505050505050600080fd5b81601f820112156107ad57803590610c8882610ae8565b92604092610c988451958661092b565b808552602091828087019260061b85010193818511610b90578301915b848310610cc55750505050505090565b8583830312610b90578386918251610cdc816108cd565b85358152610ceb83870161087a565b83820152815201920191610cb5565b9080601f830112156107ad578135610d1181610ae8565b92604091610d218351958661092b565b808552602093848087019260051b84010193818511610b9057858401925b858410610d50575050505050505090565b6001600160401b038435818111610c615786019160a080601f198588030112610c5057610d7b61094e565b908a850135825285850135848111610e4457878c610d9b92880101610b0e565b8b83015260609081860135858111610e3057888d610dbb92890101610b9d565b8784015260809182870135868111610e1b57898e610ddb928a0101610c71565b90840152850135938411610e0957610dfa878c80979681970101610b0e565b90820152815201930192610d3f565b50505050505050505050505050600080fd5b50505050505050505050505050505050600080fd5b505050505050505050505050505050600080fd5b5050505050505050505050505050600080fd5b9060e06003198301126107be57610e6c610863565b91602435916001600160401b03604435818111610f095783610e9091600401610b0e565b92606435828111610efd5781610ea891600401610b9d565b92608435838111610b905782610ec091600401610c71565b9260a435818111610eef5783610ed891600401610b0e565b9260c435918211610eef5761076091600401610cfa565b505050505050505050600080fd5b50505050505050600080fd5b505050505050600080fd5b50634e487b7160e01b600052600060045260246000fd5b90600182811c92168015610f5d575b6020831014610f4557565b5050634e487b7160e01b600052602260045260246000fd5b91607f1691610f3a565b604051906000826001918254610f7c81610f2b565b80845290848116908115610fe25750600114610fa0575b506109999250038361092b565b9280915060005260209081600020936000915b818310610fca575050610999935082010138610f93565b85548884018501529485019487945091830191610fb3565b94505050505060ff19166020830152610999826040810138610f93565b60405190600082600c549161101383610f2b565b808352600193808516908115610fe2575060011461103857506109999250038361092b565b600c600090815260008051602061519083398151915294602093509091905b81831061106e575050610999935082010138610f93565b85548884018501529485019487945091830191611057565b604051906000826002549161109a83610f2b565b808352600193808516908115610fe257506001146110bf57506109999250038361092b565b6002600090815260008051602061517083398151915294602093509091905b8183106110f5575050610999935082010138610f93565b855488840185015294850194879450918301916110de565b60405190600082600d549161112183610f2b565b808352600193808516908115610fe2575060011461114657506109999250038361092b565b600d60009081526000805160206151b083398151915294602093509091905b81831061117c575050610999935082010138610f93565b85548884018501529485019487945091830191611165565b90604051918260008254926111a884610f2b565b90818452600194858116908160001461121557506001146111d2575b50506109999250038361092b565b9093915060005260209081600020936000915b8183106111fd575050610999935082010138806111c4565b855488840185015294850194879450918301916111e5565b9550505050505060ff19166020830152610999826040810138806111c4565b602090600319011261000f576004358015158114156107be5790565b604090600319011261000f576004356001600160a01b0381168114156107be57906024358015158114156107ad5790565b909161129861076093604084526040840190610808565b916020818403910152610808565b60406003198201126107be576004356001600160a01b0381168114156107ad57916001600160401b0391602435908382116109fc57806023830112156109fc5781600401359384116109fc5760248460051b830101116107b5576024019190565b9060806003198301126107be576001600160a01b03916004358381168114156107b557926024359081168114156107b5579160443591606435906001600160401b038211610f095780602383011215610f0957816024610760936004013591016109c5565b9080601f830112156107ad5781359061138482610ae8565b92611392604051948561092b565b828452602092838086019160051b83010192808411610efd57848301915b8483106113c05750505050505090565b82356001600160401b038111610eef5786916113e184848094890101610a06565b8152019201916113b0565b9080601f830112156107ad5781359161140483610ae8565b9260406114138151958661092b565b8185526020938486019185600594851b86010194828611610eef57868101935b86851061144557505050505050505090565b6001600160401b03908535828111610c505783019184601f198488030112610c5057845192611473846108cd565b8a810135918211610e095761148d878c8894840101610a06565b845201359087821015610c5057828a93928480940152815201940193611433565b60e06003198201126107be576114c2610863565b916001600160401b0391602435908382116109fc576114e5816004938401610a06565b93604435818111610efd57826114fc918501610a06565b93606435828111610b905783611513918601610a06565b93608435838111610eef578461152a918301610a06565b9360a435848111611556578161154191840161136c565b9360c4359081116115565761076092016113ec565b50505050505050505050600080fd5b6005111561156f57565b50634e487b7160e01b600052602160045260246000fd5b92919061159b90604085526040850190610808565b9260058210156115ab5760200152565b50505050634e487b7160e01b600052602160045260246000fd5b604090600319011261000f576001600160a01b03906004358281168114156107ad57916024359081168114156107ad5790565b611600611635565b600080546001600160a01b0319811682556040516001600160a01b0390911690600080516020615210833981519152908390a3565b6000546001600160a01b031633141561164a57565b50606460405162461bcd60e51b815260206004820152602060248201527f4f776e61626c653a2063616c6c6572206973206e6f7420746865206f776e65726044820152fd5b611697611635565b6001600160a01b039081169081156116d657600080546001600160a01b03198116841782556040519216916000805160206152108339815191529190a3565b505060405162461bcd60e51b815260206004820152602660248201527f4f776e61626c653a206e6577206f776e657220697320746865207a65726f206160448201526564647265737360d01b606482015260849150fd5b80546001600160a01b0319166001600160a01b03909216919091179055565b9492909593916000549660ff8860a81c161580988199611876575b8115611853575b50156117ef576000805460ff60a01b1916600160a01b17905561179596886117d757611888565b61179b57565b6000805460ff60a81b19169055604051600181527f7f26b83ff96e1f2b6a682f133852f6798a09c465da95921460cefb384740249890602090a1565b6000805460ff60a81b1916600160a81b179055611888565b505050505050505050608460405162461bcd60e51b815260206004820152602e60248201527f496e697469616c697a61626c653a20636f6e747261637420697320616c72656160448201526d191e481a5b9a5d1a585b1a5e995960921b6064820152fd5b303b15915081611865575b503861176e565b60a01c60ff1660011490503861185e565b9050600160ff8260a01c161090611767565b959361195161195b9461194c8895611947611956966119426119358e6119306119609f8f90611928906119208e6118bd611635565b60405190816118d060208201928361082d565b03916118e4601f199384810183528261092b565b5190209060405161191660208201928261190a8560409060208152600060208201520190565b0390810183528261092b565b519020141561197f565b5115156119c9565b511515611a14565b611a7b565b805460ff19166001179055565b611c0a565b611ceb565b611dce565b611eb1565b613209565b61336c565b60018060a01b03166000805160206151f08339815191526000604051a2565b1561198657565b5060405162461bcd60e51b815260206004820152601a602482015279736368656d61205552492063616e6e6f7420626520656d70747960301b6044820152606490fd5b156119d057565b5060405162461bcd60e51b815260206004820152601b60248201527a636c6173732073697a652063616e206e6f7420626520656d70747960281b6044820152606490fd5b15611a1b57565b5060405162461bcd60e51b815260206004820152601f60248201527f7072656469636174652073697a652063616e206e6f7420626520656d707479006044820152606490fd5b6001600160a01b0316600090815260076020526040902090565b6001600160a01b0316600090815260086020526040902090565b6001600160a01b0316600090815260056020526040902090565b9060018060a01b0316600052602052604060002090565b818110611ad1575050565b60008155600101611ac6565b90601f8211611aea575050565b61099991600c6000526020600020906020601f840160051c83019310611b18575b601f0160051c0190611ac6565b9091508190611b0b565b90601f8211611b2f575050565b6109999160016000526020600020906020601f840160051c83019310611b1857601f0160051c0190611ac6565b90601f8211611b69575050565b6109999160026000526020600020906020601f840160051c83019310611b1857601f0160051c0190611ac6565b90601f8211611ba3575050565b61099991600d6000526020600020906020601f840160051c83019310611b1857601f0160051c0190611ac6565b9190601f8111611bdf57505050565b610999926000526020600020906020601f840160051c83019310611b1857601f0160051c0190611ac6565b80519091906001600160401b038111611cde575b600190611c3481611c2f8454610f2b565b611b22565b602080601f8311600114611c6f575081929394600092611c64575b5050600019600383901b1c191690821b179055565b015190503880611c4f565b6001600052601f19831695909190600080516020615250833981519152926000905b888210611cc75750508385969710611cae575b505050811b019055565b015160001960f88460031b161c19169055388080611ca4565b808785968294968601518155019501930190611c91565b611ce66108b6565b611c1e565b80519091906001600160401b038111611dc1575b611d1381611d0e600254610f2b565b611b5c565b602080601f8311600114611d4f5750819293600092611d44575b50508160011b916000199060031b1c191617600255565b015190503880611d2d565b6002600052601f19831694909190600080516020615170833981519152926000905b878210611da9575050836001959610611d90575b505050811b01600255565b015160001960f88460031b161c19169055388080611d85565b80600185968294968601518155019501930190611d71565b611dc96108b6565b611cff565b80519091906001600160401b038111611ea4575b611df681611df1600c54610f2b565b611add565b602080601f8311600114611e325750819293600092611e27575b50508160011b916000199060031b1c191617600c55565b015190503880611e10565b600c600052601f19831694909190600080516020615190833981519152926000905b878210611e8c575050836001959610611e73575b505050811b01600c55565b015160001960f88460031b161c19169055388080611e68565b80600185968294968601518155019501930190611e54565b611eac6108b6565b611de2565b80519091906001600160401b038111611f87575b611ed981611ed4600d54610f2b565b611b96565b602080601f8311600114611f155750819293600092611f0a575b50508160011b916000199060031b1c191617600d55565b015190503880611ef3565b600d600052601f198316949091906000805160206151b0833981519152926000905b878210611f6f575050836001959610611f56575b505050811b01600d55565b015160001960f88460031b161c19169055388080611f4b565b80600185968294968601518155019501930190611f37565b611f8f6108b6565b611ec5565b81519192916001600160401b038111612049575b611fbc81611fb68454610f2b565b84611bd0565b602080601f8311600114611ff8575081929394600092611fed575b50508160011b916000199060031b1c1916179055565b015190503880611fd7565b90601f1983169561200e85600052602060002090565b926000905b88821061203157505083600195969710611cae57505050811b019055565b80600185968294968601518155019501930190612013565b6120516108b6565b611fa8565b63ffffffff60e01b166380ac58cd60e01b81149081156120d1575b81156120c0575b81156120af575b811561209e575b8115612090575090565b6301ffc9a760e01b14919050565b6392ff0d3160e01b81149150612086565b6316388eeb60e21b8114915061207f565b631f75f6d360e31b81149150612078565b635b5e139f60e01b81149150612071565b906120f5602092828151948592016107d3565b0190565b60206121129181604051938285809451938492016107d3565b8101600e81520301902090565b60206121389181604051938285809451938492016107d3565b8101601081520301902090565b60209061215f9282604051948386809551938492016107d3565b82019081520301902090565b612174906120f9565b5490565b50634e487b7160e01b600052603260045260246000fd5b8015158061220c575b156121d35761076090600f548110156121c6575b600f60005260008051602061529083398151915201611194565b6121ce612178565b6121ac565b505060405162461bcd60e51b815260206004820152600f60248201526e18db185cdcc81b9bdd08195e1a5cdd608a1b6044820152606490fd5b50600f548110612198565b6121749061211f565b1561222757565b5060405162461bcd60e51b81526020600482015260136024820152721c1c99591a58d85d19481b9bdd08195e1a5cdd606a1b6044820152606490fd5b601154811015612283575b601160005260206000209060011b0190600090565b61228b612178565b61226e565b600a548110156122b0575b600a60005260206000209060011b0190600090565b6122b8612178565b61229b565b6013548110156122dd575b601360005260206000209060011b0190600090565b6122e5612178565b6122c8565b906040516122f7816108cd565b60ff6001829461230681611194565b84520154169060058210156115ab5760200152565b61233961233f918015158061236c575b61233490612220565b612263565b506122ea565b906020825192015160058110156123535790565b505050634e487b7160e01b600052602160045260246000fd5b50601154811061232b565b1561237e57565b5060405162461bcd60e51b815260206004820152600e60248201526d191bd95cc81b9bdd08195e1a5cdd60921b6044820152606490fd5b6123c16123d5926120f9565b54600052600b602052604060002090612145565b54610760811515612377565b908115158061243b575b6123f490612377565b610760600161241461240e61240886612290565b50611194565b94612290565b500154600f548110156121c657600f60005260008051602061529083398151915201611194565b50600a5482106123eb565b600454811015612466575b600460005260206000209060021b0190600090565b61246e612178565b612451565b9060405191828154918282526020928383019160005283600020936000905b8282106124a8575050506109999250038361092b565b855484526001958601958895509381019390910190612492565b604051909190608081016001600160401b0381118282101761251d575b60405260606125186003839560018060a01b0381541685526001810154602086015261250d60028201612473565b604086015201612473565b910152565b6125256108b6565b6124df565b61253381612ff8565b156125525761254d61254761076092612446565b506124c2565b61345c565b505060405162461bcd60e51b815260206004820152602760248201527f53656d616e7469635342543a2053656d616e74696353425420646f6573206e6f6044820152661d08195e1a5cdd60ca1b6064820152608490fd5b50634e487b7160e01b600052601160045260246000fd5b600181106125d0575b6000190190565b6125d86125a9565b6125c9565b8181106125e8570390565b6125f06125a9565b0390565b600454600181106125d0576000190190565b61260e6125f4565b600354908181106125e8570390565b600190600019811461262d570190565b6120f56125a9565b600190600119811161262d570190565b8119811161262d570190565b9060006001918293600454945b8581106126c45750505050505050608460405162461bcd60e51b815260206004820152602b60248201527f455243373231456e756d657261626c653a206f776e657220696e646578206f7560448201526a74206f6620626f756e647360a81b6064820152fd5b6126cd81612446565b50546001600160a01b038381169116146126f0575b6126eb9061261d565b61265e565b9282811461271d57846126eb916001198111612710575b019390506126e2565b6127186125a9565b612707565b50505091505090565b60006001908192600454935b84811061279757505050505050608460405162461bcd60e51b815260206004820152602b60248201527f455243373231456e756d657261626c653a20746f6b656e20696e646578206f7560448201526a74206f6620626f756e647360a81b6064820152fd5b6127a081612446565b50546001600160a01b03166127be575b6127b99061261d565b612732565b918181146127eb57836127b99160011981116127de575b019290506127b0565b6127e66125a9565b6127d5565b505091505090565b6001600160a01b0316801561281357600052600560205260406000205490565b505060405162461bcd60e51b815260206004820152602a60248201527f4552433732313a2062616c616e636520717565727920666f7220746865207a65604482015269726f206164647265737360b01b6064820152608490fd5b61287681612ff8565b156128925761288490612446565b50546001600160a01b031690565b505060405162461bcd60e51b815260206004820152602960248201527f4552433732313a206f776e657220717565727920666f72206e6f6e657869737460448201526832b73a103a37b5b2b760b91b6064820152608490fd5b906128f59061286d565b6001600160a01b0390811691161490565b60405190612913826108f5565b60008252565b600c546000929161292982610f2b565b9160019081811690811561297a575060011461294457505050565b9091929350600c60005260209081600020906000915b85831061296957505050500190565b80548584015291830191810161295a565b60ff191683525050019150565b60009291815461299681610f2b565b926001918083169081156129ef57506001146129b3575b50505050565b90919293945060005260209081600020906000915b8583106129de57505050500190388080806129ad565b8054858401529183019181016129c8565b60ff19168452505050019150388080806129ad565b612a0d81612ff8565b15612a7457612a1d600c54610f2b565b15612a6b57610760612a31612a4c92612b19565b612a5d604051938492612a4660208501612919565b906120e2565b64173539b7b760d91b815260050190565b03601f19810183528261092b565b50610760612906565b505060405162461bcd60e51b815260206004820152602f60248201527f4552433732314d657461646174613a2055524920717565727920666f72206e6f60448201526e3732bc34b9ba32b73a103a37b5b2b760891b6064820152608490fd5b602090805115612ae1570190565b6120f5612178565b602190805160011015612ae1570190565b906020918051821015612b0c57010190565b612b14612178565b010190565b8015612bc457806000908282935b612bb05750612b358361099b565b92612b43604051948561092b565b80845281601f19612b538361099b565b013660208701375b612b655750505090565b612b6e906125c0565b90600a90603082820680198211612ba3575b0160f81b6001600160f81b031916841a612b9a8487612afa565b53049081612b5b565b612bab6125a9565b612b80565b92612bbc600a9161261d565b930480612b27565b50604051612bd1816108cd565b60018152600360fc1b602082015290565b90612bec8161286d565b6001600160a01b038181169084168114612c9c573314908115612c82575b5015612c195761099991614b7b565b505060405162461bcd60e51b815260206004820152603860248201527f4552433732313a20617070726f76652063616c6c6572206973206e6f74206f776044820152771b995c881b9bdc88185c1c1c9bdd995908199bdc88185b1b60421b606482015260849150fd5b60ff9150612c94906102ad3391611a61565b541638612c0a565b5050505050608460405162461bcd60e51b815260206004820152602160248201527f4552433732313a20617070726f76616c20746f2063757272656e74206f776e656044820152603960f91b6064820152fd5b612cf881612ff8565b15612d18576000908152600660205260409020546001600160a01b031690565b505060405162461bcd60e51b815260206004820152602c60248201527f4552433732313a20617070726f76656420717565727920666f72206e6f6e657860448201526b34b9ba32b73a103a37b5b2b760a11b6064820152608490fd5b6001600160a01b0381169190338314612ddd57612d9e903360005260076020526040600020611aaf565b9015159060ff1981541660ff83161790556040519081527f17307eab39ab6107e8899845ad3d59bd9653f200f220920489ca2b5937696c3160203392a3565b50505050606460405162461bcd60e51b815260206004820152601960248201527822a9219b99189d1030b8383937bb32903a379031b0b63632b960391b6044820152fd5b15612e2857565b5060405162461bcd60e51b815260206004820152601e60248201527f53656d616e7469635342543a206d757374207472616e7366657261626c6500006044820152606490fd5b906109999291612e8260ff60095416612e21565b612e94612e8f8433613038565b612e99565b614a50565b15612ea057565b5060405162461bcd60e51b815260206004820152603160248201527f4552433732313a207472616e736665722063616c6c6572206973206e6f74206f6044820152701ddb995c881b9bdc88185c1c1c9bdd9959607a1b6064820152608490fd5b9091612f5e9260ff6009541692612f1684612e21565b60405193612f4190602086016001600160401b03811187821017612f83575b60405260008652612e21565b612f4e612e8f8433613038565b612f59838383614a50565b614d15565b15612f6557565b5060405162461bcd60e51b815280612f7f60048201612fa5565b0390fd5b612f8b6108b6565b612f35565b90612f5e939291612f4160ff60095416612e21565b60809060208152603260208201527f4552433732313a207472616e7366657220746f206e6f6e20455243373231526560408201527131b2b4bb32b91034b6b83632b6b2b73a32b960711b60608201520190565b8015159081613025575b8161300b575090565b6130159150612446565b50546001600160a01b0316151590565b905061302f6125f4565b81111590613002565b6001600160a01b038061304a8461286d565b169080831690828214948515613089575b505050821561306957505090565b60ff9250906130849160005260076020526040600020611aaf565b541690565b6130969192939550612cef565b16149138808061305b565b60209181518110156130b6575b60051b010190565b6130be612178565b6130ae565b156130ca57565b5060405162461bcd60e51b8152602060048201526015602482015274436c6173732063616e6e6f7420626520656d70747960581b6044820152606490fd5b1561310f57565b5060405162461bcd60e51b815260206004820152600d60248201526c185b1c9958591e481859191959609a1b6044820152606490fd5b600f546109999190600160401b811015613191575b6001810180600f55811015613184575b600f60005260008051602061529083398151915201611f94565b61318c612178565b61316a565b6131996108b6565b61315a565b6012546109999190600160401b8110156131fc575b60018101806012558110156131ef575b60126000527fbb8a6a4669ba250d26cd7a459eca9d215f8307e33aebe50379bc5a3617ec344401611f94565b6131f7612178565b6131c3565b6132046108b6565b6131b3565b9060005b82518110156132b857806132246132b392856130a1565b5161327d6040805160206132738183018361323f888361082d565b0393613253601f199586810183528261092b565b5190209351918201928261190a8560409060208152600060208201520190565b51902014156130c3565b613290613289826120f9565b5415613108565b61329981613145565b6132ad6132a7600f546125c0565b916120f9565b5561261d565b61320d565b509050565b156132c457565b5060405162461bcd60e51b81526020600482015260196024820152785072656469636174652063616e6e6f7420626520656d70747960381b6044820152606490fd5b602060016133276011548260401b81101561335f575b828101601155612263565b613352575b613337845182611f94565b0191015160058110156123535760ff80198354169116179055565b61335a610f14565b61332c565b6133676108b6565b61331c565b9060005b82518110156132b857806133876133dc92856130a1565b516133b181516040908151906133a76020918361323f848201928361082d565b51902014156132bd565b6133be613289825161211f565b6133c781613306565b6132ad6133d56011546125c0565b915161211f565b613370565b602061099991939293604051948161340287935180928680870191016107d3565b8201613416825180938680850191016107d3565b0103808552018361092b565b6040519061342f826108cd565b60018252603b60f81b6020830152565b6040519061344c826108cd565b60018252601760f91b6020830152565b61346581613739565b91600080935b604084018051805187101561364b57916134fe91602061349a6123396134948b613504986130a1565b51612263565b0180516134a681611565565b6134af81611565565b6135125750906134e66134ef916134e06134ca8b86516130a1565b516134d98c60608d01516130a1565b5190613920565b906133e1565b915b51516125c0565b87141561350a576134e061343f565b9461261d565b9361346b565b6134e0613422565b805161351d81611565565b61352681611565565b6001141561356157509061355b6134ef916134e06135458b86516130a1565b516135548c60608d01516130a1565b519061395b565b916134e8565b805161356c81611565565b61357581611565565b600214156135aa57509061355b6134ef916134e06135948b86516130a1565b516135a38c60608d01516130a1565b51906139d0565b80516135b581611565565b6135be81611565565b600314156135f357509061355b6134ef916134e06135dd8b86516130a1565b516135ec8c60608d01516130a1565b5190613a3e565b516135fd81611565565b61360681611565565b600414613617575b6134ef906134e8565b906136436134ef916134e061362d8b86516130a1565b5161363c8c60608d01516130a1565b5190613b66565b91905061360e565b50509350509050565b60405190613661826108cd565b600482526314dbdd5b60e21b6020830152565b60405190613681826108cd565b60018252601d60f91b6020830152565b6040519061369e826108cd565b60018252605f60f81b6020830152565b604051906136bb826108cd565b60018252600160fd1b6020830152565b9194936109999360405196879385516136ec8160209889808a0191016107d3565b8501613700825180938980850191016107d3565b01613713825180938880850191016107d3565b01613726825180938780850191016107d3565b01613416825180938680850191016107d3565b6020810180516107609290600090806137a5575050613756613654565b915b519081613793575161377391506001600160a01b03166137d4565b61377b613674565b91613784613691565b9061378d6136ae565b936136cb565b506124086137a091612290565b613773565b60206137c192600f548310156137c7575b600f81522001611194565b91613758565b6137cf612178565b6137b6565b604051906001600160a01b03166137ea82610910565b602a82526040366020840137603061380183612ad3565b53607861380d83612ae9565b536029905b6001821161382557610760915015613881565b80600f61386192166010811015613867575b6f181899199a1a9b1b9c1cb0b131b232b360811b901a6138578486612afa565b5360041c91613874565b90613812565b61386f612178565b613837565b80156125d0576000190190565b1561388857565b50606460405162461bcd60e51b815260206004820152602060248201527f537472696e67733a20686578206c656e67746820696e73756666696369656e746044820152fd5b604051906138da826108cd565b6002825261381d60f11b6020830152565b61099991939293604051948591835161390c816020968780880191016107d3565b8301613726825180938780850191016107d3565b9061394c61394661393661233961076095612263565b61393e6138cd565b9051906133e1565b91612b19565b906139556136ae565b906138eb565b9061396e61393661233961076094612263565b906012548110156139c3575b6012600052602060002001906139bb600160405180946139a9601160f91b918260208501526021840190612987565b90815203601e1981018552018361092b565b6139556136ae565b6139cb612178565b61397a565b906139e361393661233961076094612263565b6139bb6139ee613674565b6139f6613654565b613a10613a01613691565b956001600160a01b03166137d4565b6040519586928451613a2a816020978880890191016107d3565b8401613713825180938880850191016107d3565b90613a4e61233961076093612263565b906139bb6001613a5d83612290565b500154600f54811015613b01575b600f600052613af3613a8f613a866020938460002001611194565b9561393e6138cd565b93613a98613674565b92613aaa613aa4613691565b92612290565b50916040519785613ac48a9751809286808b0191016107d3565b8601613ad8825180938680850191016107d3565b01613aeb825180938580850191016107d3565b010190612987565b03601f19810184528361092b565b613b09612178565b613a6b565b60405190613b1b826108cd565b6002825261203b60f01b6020830152565b60405190613b39826108cd565b60018252605b60f81b6020830152565b60405190613b56826108cd565b60018252605d60f81b6020830152565b90613b79613936612339613ba294612263565b90613b95613b8f613b89836122bd565b50612473565b916122bd565b5060019384809201612473565b91613bab612906565b926000925b613bd6575b5050506107609250613bc56136ae565b613bcd613b2c565b9061378d613b49565b9091928251841015613d1e5785906020613bf661233961349488886130a1565b018051613c0281611565565b613c0b81611565565b613c685750613c2c906134e0613c2187876130a1565b516134d988876130a1565b935b613c3884516125c0565b8110613c50575b613c489061261d565b929190613bb0565b93613c60613c48916134e0613b0e565b949050613c3f565b8051613c7381611565565b613c7c81611565565b831415613ca65750613ca0906134e0613c9587876130a1565b5161355488876130a1565b93613c2e565b8051613cb181611565565b613cba81611565565b60021415613cdf5750613ca0906134e0613cd487876130a1565b516135a388876130a1565b94909451613cec81611565565b613cf581611565565b600314613d0157613c2e565b93613ca0906134e0613d1387876130a1565b516135ec88876130a1565b92613bb5565b15613d2b57565b5060405162461bcd60e51b815260206004820152601b60248201527a29b2b6b0b73a34b1a9a12a1d1036bab9ba1031329036b4b73a32b960291b6044820152606490fd5b6001604092613d966000913383526008602052613d9160ff8785205416613d24565b6120f9565b5490613da3821515613e37565b818152600b602052613dba61328986832086612145565b613dd2600a54958284889452600b6020522085612145565b5560405192613de0846108cd565b8352602083019081528160401b841015613e2a575b818401600a55613e16613e0785612290565b949094613e1d575b5184611f94565b5191015590565b613e25610f14565b613e0f565b613e326108b6565b613df5565b15613e3e57565b5060405162461bcd60e51b815260206004820152600b60248201526a3830b930b69032b93937b960a91b6044820152606490fd5b92919094939533600052600860205260406000205460ff16613e9390613d24565b6001600160a01b03841694613ea9861515613ff7565b600a548710613eb790613e37565b600454978897613ec5614052565b613ecd614052565b90613ed661096d565b6001600160a01b038b16815292602084015260408301526060820152613efb906140e8565b613f0488612446565b5060020194613f1289612446565b5060030194613f2290868861428b565b613f2d90858761435f565b613f389084866143f5565b613f43908385614488565b613f4d9183614601565b541515613f5990613e37565b613f6281611a95565b8054613f6d90612635565b905582613f78612906565b90613f8292614c60565b613f8b906141d9565b818160405160008051602061523083398151915260008092a4613fad82612446565b50613fb7906124c2565b613fc09061345c565b604051803392613fd0908261082d565b037f6ca139c4cce2c6dfdd350d203c7ac907df3bdc839acb0c9f1d59d01950aaaead91a490565b15613ffe57565b5060405162461bcd60e51b815260206004820152602560248201527f53656d616e7469635342543a206d696e7420746f20746865207a65726f206164604482015264647265737360d81b6064820152608490fd5b6040519061405f826108f5565b6000808352366020840137565b815191600160401b83116140db575b81548383558084106140bd575b50602080910191600052806000206000925b8484106140a8575050505050565b6001838282935185550192019301929061409a565b6140d590836000528460206000209182019101611ac6565b38614088565b6140e36108b6565b61407b565b600454600160401b9190828110156141cc575b61410c600191828101600455612446565b9390936141bf575b8251614129906001600160a01b03168561172d565b60208084015183860155600285019080604086015180519485116141b2575b8354858555808610614195575b500191600052806000206000925b848410614182575050505050509060036060610999930151910161406c565b8051825592850192908501908201614163565b6141ac908560005286846000209182019101611ac6565b38614155565b6141ba6108b6565b614148565b6141c7610f14565b614114565b6141d46108b6565b6140fb565b156141e057565b5060405162461bcd60e51b815260206004820152603760248201527f53656d616e7469635342543a207472616e7366657220746f206e6f6e204552436044820152761b9918a932b1b2b4bb32b91034b6b83632b6b2b73a32b960491b6064820152608490fd5b805490600160401b82101561427e575b60018201808255821015614271575b60005260206000200155565b614279612178565b614265565b6142866108b6565b614256565b929190600091825b8151811015614357576142a681836130a1565b519060ff60016142c284518015158061236c5761233490612220565b50015416600581101561433b576142f9576142ef6020836142e76142f495518b614246565b015185614246565b61261d565b614293565b50505050505050606460405162461bcd60e51b8152602060048201526014602482015273383932b234b1b0ba32903a3cb8329032b93937b960611b6044820152fd5b5050634e487b7160e01b84525050602160045250602492509050fd5b505050509050565b909291600090815b81518110156143575761437a81836130a1565b519061439282518015158061236c5761233490612220565b5060ff6001809201541660058110156143d85714156142f9576142ef6143d3926143cd601254916143c6602082015161319e565b5188614246565b88614246565b614367565b5050634e487b7160e01b8452505060216004525060249350915050fd5b90929192600093845b81518110156143575761441181836130a1565b519060ff600161442d84518015158061236c5761233490612220565b50015416600581101561446c57600214156142f9576142ef82614454614467945188614246565b602001516001600160a01b031685614246565b6143fe565b5050634e487b7160e01b86525050602160045250602492915050fd5b90929160005b8151811015614531576144a181836130a1565b516144ac81516146c5565b6020908181019182518015159081614525575b50156144e557506144e092916144d96142ef925187614246565b5187614246565b61448e565b95505050505050606491506040519062461bcd60e51b8252600482015260116024820152701cdd589a9958dd081b9bdd08195e1a5cdd607a1b6044820152fd5b9050600a5411386144bf565b5050509050565b90601354600160401b90818110156145f4575b61455c6001918281016013556122bd565b9290926145e7575b84519081519081116145da575b83548185558082106145bc575b50602080920184600052826000206000915b8383106145a9575050505061099993940151910161406c565b8051825591850191908501908401614590565b6145d490856000528260206000209182019101611ac6565b3861457e565b6145e26108b6565b614571565b6145ef610f14565b614564565b6145fc6108b6565b61454b565b929160005b815181101561453157806142ef6146206146c093856130a1565b5161462f815160115411612220565b6146ba601354916146b3614641614052565b61466461464c614052565b9161465561098c565b90815260209283820152614538565b61466d856122bd565b509061468a600161467d886122bd565b500191850151828461428b565b6146996040850151828461435f565b6146a8606085015182846143f5565b608084015191614488565b5189614246565b85614246565b614606565b60016146de60ff928015158061236c5761233490612220565b50015416600581101561473257600314156146f557565b5060405162461bcd60e51b8152602060048201526014602482015273383932b234b1b0ba32903a3cb8329032b93937b960611b6044820152606490fd5b5050634e487b7160e01b600052602160045260246000fd5b33600052600860205261476460ff60406000205416613d24565b6147766147718333613038565b61482d565b61477f8261286d565b6001600160a01b0380831692916147989116831461488f565b6147c76147aa61254d61254786612446565b916147b485614b37565b6147bf60035461261d565b600355611a95565b6147d181546125c0565b90556147dc83612446565b5080546001600160a01b03191690556040516000805160206151d083398151915290846000856000805160206152308339815191528285a4602081528061482833946020830190610808565b0390a4565b1561483457565b5060405162461bcd60e51b815260206004820152602c60248201527f53656d616e7469635342543a2063616c6c6572206973206e6f7420617070726f60448201526b3b32b21037b91037bbb732b960a11b6064820152608490fd5b1561489657565b5060405162461bcd60e51b815260206004820152601660248201527529b2b6b0b73a34b1a9a12a1d103737ba1037bbb732b960511b6044820152606490fd5b909160009133835260086020526040916148f460ff8486205416613d24565b61490861490382600354612645565b600355565b61491182611a95565b61491c8282546125dd565b9055835b81811061492f57505050505050565b8061493e6149da9284896149df565b3561494c6147718233613038565b61495e61495982876128eb565b61488f565b61496d61254d61254783612446565b61497682614b37565b61499361498283612446565b5080546001600160a01b0319169055565b86516001600160a01b03871691906000805160206151d083398151915290848b856000805160206152308339815191528285a4806149d233948261082d565b0390a461261d565b614920565b91908110156149ef5760051b0190565b610b09612178565b156149fe57565b5060405162461bcd60e51b8152602060048201526024808201527f4552433732313a207472616e7366657220746f20746865207a65726f206164646044820152637265737360e01b6064820152608490fd5b90614a5a8361286d565b6001600160a01b038381169290918216831415614adb57614a94614aa592821694614a868615156149f7565b614a8f87614b37565b611a95565b614a9e81546125c0565b9055611a95565b614aaf8154612635565b9055614ac482614abe85612446565b5061172d565b6000805160206152308339815191526000604051a4565b505050505050608460405162461bcd60e51b815260206004820152602960248201527f4552433732313a207472616e73666572206f6620746f6b656e2074686174206960448201526839903737ba1037bbb760b91b6064820152fd5b600081815260066020526040812080546001600160a01b03191690556001600160a01b03614b648361286d565b1660008051602061527083398151915282604051a4565b816000526006602052614b9281604060002061172d565b6001600160a01b0380614ba48461286d565b169116906000805160206152708339815191526000604051a4565b908160209103126107be575161076081610735565b610760939260809260018060a01b031682526000602083015260408201528160608201520190610808565b6001600160a01b03918216815291166020820152604081019190915260806060820181905261076092910190610808565b3d15614c5b573d90614c418261099b565b91614c4f604051938461092b565b82523d6000602084013e565b606090565b919091803b614c7157505050600190565b614c99602091600093604051948580948193630a85bd0160e11b998a84523360048501614bd4565b03926001600160a01b03165af160009181614cf5575b50614ce757505050614cbf614c30565b80519081614ce257505060405162461bcd60e51b815280612f7f60048201612fa5565b602001fd5b6001600160e01b0319161490565b614d0e919250614d053d8261092b565b3d810190614bbf565b9038614caf565b92919091823b614d285750505050600190565b614c99926020926000604051809681958294630a85bd0160e11b9a8b85523360048601614bff565b9190614d5a611635565b6001600160401b038111614e1d575b614d7881611df1600c54610f2b565b6000601f8211600114614db157819293600092614da65750508160011b916000199060031b1c191617600c55565b013590503880611e10565b600c600052601f1982169360008051602061519083398151915291805b868110614e055750836001959610614deb57505050811b01600c55565b0135600019600384901b60f8161c19169055388080611e68565b90926020600181928686013581550194019101614dce565b614e256108b6565b614d69565b614e32611635565b60ff8019600954169115151617600955565b9190614e4e611635565b6001600160401b038111614f0e575b600190614e6e81611c2f8454610f2b565b6000601f8211600114614ea65781929394600092614e9b575050600019600383901b1c191690821b179055565b013590503880611c4f565b6001600052601f1982169460008051602061525083398151915291805b878110614ef857508385969710614ede57505050811b019055565b0135600019600384901b60f8161c19169055388080611ca4565b8282013584559285019260209182019101614ec3565b614f166108b6565b614e5d565b9190614f25611635565b6001600160401b038111614fe8575b614f4381611d0e600254610f2b565b6000601f8211600114614f7c57819293600092614f715750508160011b916000199060031b1c191617600255565b013590503880611d2d565b6002600052601f1982169360008051602061517083398151915291805b868110614fd05750836001959610614fb657505050811b01600255565b0135600019600384901b60f8161c19169055388080611d85565b90926020600181928686013581550194019101614f99565b614ff06108b6565b614f34565b614ffd611635565b6001600160a01b0381169081156150815760ff61501982611a7b565b54166150425761193561502b91611a7b565b6000805160206151f08339815191526000604051a2565b505060405162461bcd60e51b81526020600482015260146024820152731b5a5b9d195c88185b1c9958591e48185919195960621b604482015260649150fd5b505060405162461bcd60e51b815260206004820152601f60248201527f6d696e746572206d757374206e6f74206265206e756c6c206164647265737300604482015260649150fd5b6150d1611635565b6001600160a01b03811660008181526008602052604090205490919060ff161561512f576150fe90611a7b565b60ff1981541690557f7df677640dd30a79584f8ecea06aeea15d215b861c5d3b5f8c26962d691f820e6000604051a2565b505060405162461bcd60e51b81526020600482015260156024820152741b5a5b9d195c88191bd95cc81b9bdd08195e1a5cdd605a1b604482015260649150fdfe405787fa12a823e0f2b7631cc41b3ba8828b3321ca811111fa75cd3aa3bb5acedf6966c971051c3d54ec59162606531493a51404a002842f56009d7e5cf4a8c7d7b6990105719101dabeb77144f2a3385c8033acd3af97e9423a695e81ad1eb58ea074c4be03960be214c047b695cecdc52be7382eee092c135d1726fabfc4443a159411d00fa06a3ec11d4578931f1b7f877cceadb1e083929d74ec020cb2438be0079c531659141344cd1fd0a4f28419497f9722a3daafe3b4186f6b6457e0ddf252ad1be2c89b69c2b068fc378daa952ba7f163c4a11628f55a4df523b3efb10e2d527612073b26eecdfd717e6a320cf44b4afac2b0732d9fcbe2b7fa0cf68c5be1e5ebec7d5bd14f71427d1e84f3dd0314c0f7b2291e5b200ac8c7c3b9258d1108e10bcb7c27dddfc02ed9d693a074039d026cf4ea4240b40f7d581ac802a3646970667358221220bbbbadc9f3f2a9ae6cdb1733805f33830adcdf31d6e675c12994d2c50de5ce6d6c6578706572696d656e74616cf564736f6c634300080c0041",
  "linkReferences": {},
  "deployedLinkReferences": {}
}